{
  "_format": "hh-sol-artifact-1",
  "contractName": "EvidenceContract",
  "sourceName": "contracts/Evidence.sol",
  "abi": [
    {
      "inputs": [],
      "stateMutability": "nonpayable",
      "type": "constructor"
    },
    {
      "inputs": [
        {
          "internalType": "uint256",
          "name": "",
          "type": "uint256"
        }
      ],
      "name": "Firs",
      "outputs": [
        {
          "internalType": "string",
          "name": "Title",
          "type": "string"
        },
        {
          "internalType": "string",
          "name": "Description",
          "type": "string"
        },
        {
          "internalType": "uint256",
          "name": "time",
          "type": "uint256"
        },
        {
          "internalType": "uint256",
          "name": "stationid",
          "type": "uint256"
        },
        {
          "internalType": "address",
          "name": "creator",
          "type": "address"
        }
      ],
      "stateMutability": "view",
      "type": "function"
    },
    {
      "inputs": [],
      "name": "administrator",
      "outputs": [
        {
          "internalType": "address",
          "name": "",
          "type": "address"
        }
      ],
      "stateMutability": "view",
      "type": "function"
    },
    {
      "inputs": [
        {
          "internalType": "string",
          "name": "id",
          "type": "string"
        },
        {
          "internalType": "string",
          "name": "Title",
          "type": "string"
        },
        {
          "internalType": "uint256",
          "name": "FirID",
          "type": "uint256"
        }
      ],
      "name": "createEvidence",
      "outputs": [],
      "stateMutability": "nonpayable",
      "type": "function"
    },
    {
      "inputs": [
        {
          "internalType": "string",
          "name": "Title",
          "type": "string"
        },
        {
          "internalType": "string",
          "name": "Description",
          "type": "string"
        },
        {
          "internalType": "uint256",
          "name": "time",
          "type": "uint256"
        },
        {
          "internalType": "uint256",
          "name": "stationid",
          "type": "uint256"
        }
      ],
      "name": "createFir",
      "outputs": [],
      "stateMutability": "nonpayable",
      "type": "function"
    },
    {
      "inputs": [
        {
          "internalType": "address",
          "name": "police_address",
          "type": "address"
        }
      ],
      "name": "createPolice",
      "outputs": [],
      "stateMutability": "nonpayable",
      "type": "function"
    },
    {
      "inputs": [
        {
          "internalType": "string",
          "name": "name",
          "type": "string"
        },
        {
          "internalType": "string",
          "name": "location",
          "type": "string"
        }
      ],
      "name": "createStation",
      "outputs": [],
      "stateMutability": "nonpayable",
      "type": "function"
    },
    {
      "inputs": [
        {
          "internalType": "uint256",
          "name": "",
          "type": "uint256"
        }
      ],
      "name": "evidences",
      "outputs": [
        {
          "internalType": "string",
          "name": "Title",
          "type": "string"
        },
        {
          "internalType": "string",
          "name": "id",
          "type": "string"
        }
      ],
      "stateMutability": "view",
      "type": "function"
    },
    {
      "inputs": [],
      "name": "getAllFirs",
      "outputs": [
        {
          "components": [
            {
              "internalType": "string",
              "name": "Title",
              "type": "string"
            },
            {
              "internalType": "string",
              "name": "Description",
              "type": "string"
            },
            {
              "internalType": "uint256",
              "name": "time",
              "type": "uint256"
            },
            {
              "internalType": "uint256",
              "name": "stationid",
              "type": "uint256"
            },
            {
              "internalType": "address",
              "name": "creator",
              "type": "address"
            },
            {
              "internalType": "uint256[]",
              "name": "evidences_arr",
              "type": "uint256[]"
            }
          ],
          "internalType": "struct EvidenceContract.Fir[]",
          "name": "",
          "type": "tuple[]"
        }
      ],
      "stateMutability": "view",
      "type": "function"
    },
    {
      "inputs": [],
      "name": "getAllStations",
      "outputs": [
        {
          "components": [
            {
              "internalType": "string",
              "name": "name",
              "type": "string"
            },
            {
              "internalType": "string",
              "name": "location",
              "type": "string"
            }
          ],
          "internalType": "struct EvidenceContract.station[]",
          "name": "",
          "type": "tuple[]"
        }
      ],
      "stateMutability": "view",
      "type": "function"
    },
    {
      "inputs": [
        {
          "internalType": "uint256",
          "name": "firid",
          "type": "uint256"
        }
      ],
      "name": "getFir",
      "outputs": [
        {
          "components": [
            {
              "internalType": "string",
              "name": "Title",
              "type": "string"
            },
            {
              "internalType": "string",
              "name": "Description",
              "type": "string"
            },
            {
              "internalType": "uint256",
              "name": "time",
              "type": "uint256"
            },
            {
              "internalType": "uint256",
              "name": "stationid",
              "type": "uint256"
            },
            {
              "internalType": "address",
              "name": "creator",
              "type": "address"
            },
            {
              "internalType": "uint256[]",
              "name": "evidences_arr",
              "type": "uint256[]"
            }
          ],
          "internalType": "struct EvidenceContract.Fir",
          "name": "",
          "type": "tuple"
        }
      ],
      "stateMutability": "view",
      "type": "function"
    },
    {
      "inputs": [
        {
          "internalType": "address",
          "name": "police_address",
          "type": "address"
        }
      ],
      "name": "isAuthorised",
      "outputs": [
        {
          "internalType": "bool",
          "name": "",
          "type": "bool"
        }
      ],
      "stateMutability": "view",
      "type": "function"
    },
    {
      "inputs": [],
      "name": "numEvidence",
      "outputs": [
        {
          "internalType": "uint256",
          "name": "",
          "type": "uint256"
        }
      ],
      "stateMutability": "view",
      "type": "function"
    },
    {
      "inputs": [],
      "name": "numFir",
      "outputs": [
        {
          "internalType": "uint256",
          "name": "",
          "type": "uint256"
        }
      ],
      "stateMutability": "view",
      "type": "function"
    },
    {
      "inputs": [
        {
          "internalType": "address",
          "name": "",
          "type": "address"
        }
      ],
      "name": "police_men",
      "outputs": [
        {
          "internalType": "uint256",
          "name": "",
          "type": "uint256"
        }
      ],
      "stateMutability": "view",
      "type": "function"
    },
    {
      "inputs": [
        {
          "internalType": "address",
          "name": "police_address",
          "type": "address"
        }
      ],
      "name": "revokeAccess",
      "outputs": [],
      "stateMutability": "nonpayable",
      "type": "function"
    },
    {
      "inputs": [
        {
          "internalType": "uint256",
          "name": "",
          "type": "uint256"
        }
      ],
      "name": "stations",
      "outputs": [
        {
          "internalType": "string",
          "name": "name",
          "type": "string"
        },
        {
          "internalType": "string",
          "name": "location",
          "type": "string"
        }
      ],
      "stateMutability": "view",
      "type": "function"
    }
  ],
  "bytecode": "0x608060405234801561001057600080fd5b50336000806101000a81548173ffffffffffffffffffffffffffffffffffffffff021916908373ffffffffffffffffffffffffffffffffffffffff160217905550600060068190555060006005819055506123fa806100706000396000f3fe608060405234801561001057600080fd5b50600436106101005760003560e01c8063829fadcf11610097578063c0c52b8f11610066578063c0c52b8f146102bf578063d8a4bcae146102dd578063f205950c14610311578063f53d0a8e1461032f57610100565b8063829fadcf1461022457806385e68531146102545780638a27d12e1461027057806392f859db1461028e57610100565b80632eaf547d116100d35780632eaf547d1461018c57806351b699cd146101bc578063575f407c146101ec5780637b5614a01461020857610100565b806312f6d60c146101055780632118f9c4146101215780632303de1b1461013f5780632e4546cd1461015b575b600080fd5b61011f600480360381019061011a9190611799565b61034d565b005b61012961042b565b6040516101369190611965565b60405180910390f35b61015960048036038101906101549190611af2565b6105ae565b005b61017560048036038101906101709190611b7d565b6106b8565b604051610183929190611bf4565b60405180910390f35b6101a660048036038101906101a19190611799565b6107ec565b6040516101b39190611c3a565b60405180910390f35b6101d660048036038101906101d19190611799565b610804565b6040516101e39190611c70565b60405180910390f35b61020660048036038101906102019190611c8b565b61084f565b005b610222600480360381019061021d9190611d03565b610965565b005b61023e60048036038101906102399190611b7d565b610b7f565b60405161024b9190611f06565b60405180910390f35b61026e60048036038101906102699190611799565b610d92565b005b610278610e71565b6040516102859190611c3a565b60405180910390f35b6102a860048036038101906102a39190611b7d565b610e77565b6040516102b6929190611bf4565b60405180910390f35b6102c7610fbb565b6040516102d49190611c3a565b60405180910390f35b6102f760048036038101906102f29190611b7d565b610fc1565b604051610308959493929190611f37565b60405180910390f35b610319611127565b60405161032691906120f1565b60405180910390f35b6103376113cd565b6040516103449190612113565b60405180910390f35b60008054906101000a900473ffffffffffffffffffffffffffffffffffffffff1673ffffffffffffffffffffffffffffffffffffffff163373ffffffffffffffffffffffffffffffffffffffff16146103a557600080fd5b60018060008373ffffffffffffffffffffffffffffffffffffffff1673ffffffffffffffffffffffffffffffffffffffff168152602001908152602001600020819055506104286040518060400160405280601081526020017f41636365737320676976656e20746f3a00000000000000000000000000000000815250826113f1565b50565b60606004805480602002602001604051908101604052809291908181526020016000905b828210156105a557838290600052602060002090600202016040518060400160405290816000820180546104829061215d565b80601f01602080910402602001604051908101604052809291908181526020018280546104ae9061215d565b80156104fb5780601f106104d0576101008083540402835291602001916104fb565b820191906000526020600020905b8154815290600101906020018083116104de57829003601f168201915b505050505081526020016001820180546105149061215d565b80601f01602080910402602001604051908101604052809291908181526020018280546105409061215d565b801561058d5780601f106105625761010080835404028352916020019161058d565b820191906000526020600020905b81548152906001019060200180831161057057829003601f168201915b5050505050815250508152602001906001019061044f565b50505050905090565b600060036000838152602001908152602001600020600201541415610608576040517f08c379a00000000000000000000000000000000000000000000000000000000081526004016105ff906121db565b60405180910390fd5b600060026000600560008154809291906106219061222a565b91905055815260200190815260200160002090508381600101908051906020019061064d9291906115eb565b50828160000190805190602001906106669291906115eb565b5060036000838152602001908152602001600020600501600160055461068c9190612273565b908060018154018082558091505060019003906000526020600020016000909190919091505550505050565b60026020528060005260406000206000915090508060000180546106db9061215d565b80601f01602080910402602001604051908101604052809291908181526020018280546107079061215d565b80156107545780601f1061072957610100808354040283529160200191610754565b820191906000526020600020905b81548152906001019060200180831161073757829003601f168201915b5050505050908060010180546107699061215d565b80601f01602080910402602001604051908101604052809291908181526020018280546107959061215d565b80156107e25780601f106107b7576101008083540402835291602001916107e2565b820191906000526020600020905b8154815290600101906020018083116107c557829003601f168201915b5050505050905082565b60016020528060005260406000206000915090505481565b600060018060008473ffffffffffffffffffffffffffffffffffffffff1673ffffffffffffffffffffffffffffffffffffffff16815260200190815260200160002054149050919050565b60008054906101000a900473ffffffffffffffffffffffffffffffffffffffff1673ffffffffffffffffffffffffffffffffffffffff163373ffffffffffffffffffffffffffffffffffffffff16146108a757600080fd5b6004604051806040016040528084815260200183815250908060018154018082558091505060019003906000526020600020906002020160009091909190915060008201518160000190805190602001906109039291906115eb565b5060208201518160010190805190602001906109209291906115eb565b5050506109616040518060400160405280601481526020017f4e65772053746174696f6e20637265617465642e00000000000000000000000081525061148d565b5050565b60018060003373ffffffffffffffffffffffffffffffffffffffff1673ffffffffffffffffffffffffffffffffffffffff16815260200190815260200160002054146109e6576040517f08c379a00000000000000000000000000000000000000000000000000000000081526004016109dd906122f3565b60405180910390fd5b6109ee611671565b33816080019073ffffffffffffffffffffffffffffffffffffffff16908173ffffffffffffffffffffffffffffffffffffffff16815250508481600001819052508381602001819052508181606001818152505082816040018181525050806003600060066000815480929190610a649061222a565b9190505581526020019081526020016000206000820151816000019080519060200190610a929291906115eb565b506020820151816001019080519060200190610aaf9291906115eb565b50604082015181600201556060820151816003015560808201518160040160006101000a81548173ffffffffffffffffffffffffffffffffffffffff021916908373ffffffffffffffffffffffffffffffffffffffff16021790555060a0820151816005019080519060200190610b279291906116bd565b50905050610b786040518060400160405280601581526020017f464952206372656174656420776974682049443a2000000000000000000000008152506001600654610b739190612273565b611526565b5050505050565b610b87611671565b600360008381526020019081526020016000206040518060c0016040529081600082018054610bb59061215d565b80601f0160208091040260200160405190810160405280929190818152602001828054610be19061215d565b8015610c2e5780601f10610c0357610100808354040283529160200191610c2e565b820191906000526020600020905b815481529060010190602001808311610c1157829003601f168201915b50505050508152602001600182018054610c479061215d565b80601f0160208091040260200160405190810160405280929190818152602001828054610c739061215d565b8015610cc05780601f10610c9557610100808354040283529160200191610cc0565b820191906000526020600020905b815481529060010190602001808311610ca357829003601f168201915b5050505050815260200160028201548152602001600382015481526020016004820160009054906101000a900473ffffffffffffffffffffffffffffffffffffffff1673ffffffffffffffffffffffffffffffffffffffff1673ffffffffffffffffffffffffffffffffffffffff16815260200160058201805480602002602001604051908101604052809291908181526020018280548015610d8257602002820191906000526020600020905b815481526020019060010190808311610d6e575b5050505050815250509050919050565b60008054906101000a900473ffffffffffffffffffffffffffffffffffffffff1673ffffffffffffffffffffffffffffffffffffffff163373ffffffffffffffffffffffffffffffffffffffff1614610dea57600080fd5b6000600160008373ffffffffffffffffffffffffffffffffffffffff1673ffffffffffffffffffffffffffffffffffffffff16815260200190815260200160002081905550610e6e6040518060400160405280601381526020017f416363657373207265766f6b656420666f723a00000000000000000000000000815250826113f1565b50565b60055481565b60048181548110610e8757600080fd5b9060005260206000209060020201600091509050806000018054610eaa9061215d565b80601f0160208091040260200160405190810160405280929190818152602001828054610ed69061215d565b8015610f235780601f10610ef857610100808354040283529160200191610f23565b820191906000526020600020905b815481529060010190602001808311610f0657829003601f168201915b505050505090806001018054610f389061215d565b80601f0160208091040260200160405190810160405280929190818152602001828054610f649061215d565b8015610fb15780601f10610f8657610100808354040283529160200191610fb1565b820191906000526020600020905b815481529060010190602001808311610f9457829003601f168201915b5050505050905082565b60065481565b6003602052806000526040600020600091509050806000018054610fe49061215d565b80601f01602080910402602001604051908101604052809291908181526020018280546110109061215d565b801561105d5780601f106110325761010080835404028352916020019161105d565b820191906000526020600020905b81548152906001019060200180831161104057829003601f168201915b5050505050908060010180546110729061215d565b80601f016020809104026020016040519081016040528092919081815260200182805461109e9061215d565b80156110eb5780601f106110c0576101008083540402835291602001916110eb565b820191906000526020600020905b8154815290600101906020018083116110ce57829003601f168201915b5050505050908060020154908060030154908060040160009054906101000a900473ffffffffffffffffffffffffffffffffffffffff16905085565b6060600060065467ffffffffffffffff81111561114757611146611991565b5b60405190808252806020026020018201604052801561118057816020015b61116d611671565b8152602001906001900390816111655790505b50905060005b6006548110156113c557600360008281526020019081526020016000206040518060c00160405290816000820180546111be9061215d565b80601f01602080910402602001604051908101604052809291908181526020018280546111ea9061215d565b80156112375780601f1061120c57610100808354040283529160200191611237565b820191906000526020600020905b81548152906001019060200180831161121a57829003601f168201915b505050505081526020016001820180546112509061215d565b80601f016020809104026020016040519081016040528092919081815260200182805461127c9061215d565b80156112c95780601f1061129e576101008083540402835291602001916112c9565b820191906000526020600020905b8154815290600101906020018083116112ac57829003601f168201915b5050505050815260200160028201548152602001600382015481526020016004820160009054906101000a900473ffffffffffffffffffffffffffffffffffffffff1673ffffffffffffffffffffffffffffffffffffffff1673ffffffffffffffffffffffffffffffffffffffff1681526020016005820180548060200260200160405190810160405280929190818152602001828054801561138b57602002820191906000526020600020905b815481526020019060010190808311611377575b5050505050815250508282815181106113a7576113a6612313565b5b602002602001018190525080806113bd9061222a565b915050611186565b508091505090565b60008054906101000a900473ffffffffffffffffffffffffffffffffffffffff1681565b6114898282604051602401611407929190612342565b6040516020818303038152906040527f319af333000000000000000000000000000000000000000000000000000000007bffffffffffffffffffffffffffffffffffffffffffffffffffffffff19166020820180517bffffffffffffffffffffffffffffffffffffffffffffffffffffffff83818316178352505050506115c2565b5050565b611523816040516024016114a19190612372565b6040516020818303038152906040527f41304fac000000000000000000000000000000000000000000000000000000007bffffffffffffffffffffffffffffffffffffffffffffffffffffffff19166020820180517bffffffffffffffffffffffffffffffffffffffffffffffffffffffff83818316178352505050506115c2565b50565b6115be828260405160240161153c929190612394565b6040516020818303038152906040527f9710a9d0000000000000000000000000000000000000000000000000000000007bffffffffffffffffffffffffffffffffffffffffffffffffffffffff19166020820180517bffffffffffffffffffffffffffffffffffffffffffffffffffffffff83818316178352505050506115c2565b5050565b60008151905060006a636f6e736f6c652e6c6f679050602083016000808483855afa5050505050565b8280546115f79061215d565b90600052602060002090601f0160209004810192826116195760008555611660565b82601f1061163257805160ff1916838001178555611660565b82800160010185558215611660579182015b8281111561165f578251825591602001919060010190611644565b5b50905061166d919061170a565b5090565b6040518060c0016040528060608152602001606081526020016000815260200160008152602001600073ffffffffffffffffffffffffffffffffffffffff168152602001606081525090565b8280548282559060005260206000209081019282156116f9579160200282015b828111156116f85782518255916020019190600101906116dd565b5b509050611706919061170a565b5090565b5b8082111561172357600081600090555060010161170b565b5090565b6000604051905090565b600080fd5b600080fd5b600073ffffffffffffffffffffffffffffffffffffffff82169050919050565b60006117668261173b565b9050919050565b6117768161175b565b811461178157600080fd5b50565b6000813590506117938161176d565b92915050565b6000602082840312156117af576117ae611731565b5b60006117bd84828501611784565b91505092915050565b600081519050919050565b600082825260208201905092915050565b6000819050602082019050919050565b600081519050919050565b600082825260208201905092915050565b60005b8381101561182c578082015181840152602081019050611811565b8381111561183b576000848401525b50505050565b6000601f19601f8301169050919050565b600061185d826117f2565b61186781856117fd565b935061187781856020860161180e565b61188081611841565b840191505092915050565b600060408301600083015184820360008601526118a88282611852565b915050602083015184820360208601526118c28282611852565b9150508091505092915050565b60006118db838361188b565b905092915050565b6000602082019050919050565b60006118fb826117c6565b61190581856117d1565b935083602082028501611917856117e2565b8060005b85811015611953578484038952815161193485826118cf565b945061193f836118e3565b925060208a0199505060018101905061191b565b50829750879550505050505092915050565b6000602082019050818103600083015261197f81846118f0565b905092915050565b600080fd5b600080fd5b7f4e487b7100000000000000000000000000000000000000000000000000000000600052604160045260246000fd5b6119c982611841565b810181811067ffffffffffffffff821117156119e8576119e7611991565b5b80604052505050565b60006119fb611727565b9050611a0782826119c0565b919050565b600067ffffffffffffffff821115611a2757611a26611991565b5b611a3082611841565b9050602081019050919050565b82818337600083830152505050565b6000611a5f611a5a84611a0c565b6119f1565b905082815260208101848484011115611a7b57611a7a61198c565b5b611a86848285611a3d565b509392505050565b600082601f830112611aa357611aa2611987565b5b8135611ab3848260208601611a4c565b91505092915050565b6000819050919050565b611acf81611abc565b8114611ada57600080fd5b50565b600081359050611aec81611ac6565b92915050565b600080600060608486031215611b0b57611b0a611731565b5b600084013567ffffffffffffffff811115611b2957611b28611736565b5b611b3586828701611a8e565b935050602084013567ffffffffffffffff811115611b5657611b55611736565b5b611b6286828701611a8e565b9250506040611b7386828701611add565b9150509250925092565b600060208284031215611b9357611b92611731565b5b6000611ba184828501611add565b91505092915050565b600082825260208201905092915050565b6000611bc6826117f2565b611bd08185611baa565b9350611be081856020860161180e565b611be981611841565b840191505092915050565b60006040820190508181036000830152611c0e8185611bbb565b90508181036020830152611c228184611bbb565b90509392505050565b611c3481611abc565b82525050565b6000602082019050611c4f6000830184611c2b565b92915050565b60008115159050919050565b611c6a81611c55565b82525050565b6000602082019050611c856000830184611c61565b92915050565b60008060408385031215611ca257611ca1611731565b5b600083013567ffffffffffffffff811115611cc057611cbf611736565b5b611ccc85828601611a8e565b925050602083013567ffffffffffffffff811115611ced57611cec611736565b5b611cf985828601611a8e565b9150509250929050565b60008060008060808587031215611d1d57611d1c611731565b5b600085013567ffffffffffffffff811115611d3b57611d3a611736565b5b611d4787828801611a8e565b945050602085013567ffffffffffffffff811115611d6857611d67611736565b5b611d7487828801611a8e565b9350506040611d8587828801611add565b9250506060611d9687828801611add565b91505092959194509250565b611dab81611abc565b82525050565b611dba8161175b565b82525050565b600081519050919050565b600082825260208201905092915050565b6000819050602082019050919050565b6000611df88383611da2565b60208301905092915050565b6000602082019050919050565b6000611e1c82611dc0565b611e268185611dcb565b9350611e3183611ddc565b8060005b83811015611e62578151611e498882611dec565b9750611e5483611e04565b925050600181019050611e35565b5085935050505092915050565b600060c0830160008301518482036000860152611e8c8282611852565b91505060208301518482036020860152611ea68282611852565b9150506040830151611ebb6040860182611da2565b506060830151611ece6060860182611da2565b506080830151611ee16080860182611db1565b5060a083015184820360a0860152611ef98282611e11565b9150508091505092915050565b60006020820190508181036000830152611f208184611e6f565b905092915050565b611f318161175b565b82525050565b600060a0820190508181036000830152611f518188611bbb565b90508181036020830152611f658187611bbb565b9050611f746040830186611c2b565b611f816060830185611c2b565b611f8e6080830184611f28565b9695505050505050565b600081519050919050565b600082825260208201905092915050565b6000819050602082019050919050565b600060c0830160008301518482036000860152611fe18282611852565b91505060208301518482036020860152611ffb8282611852565b91505060408301516120106040860182611da2565b5060608301516120236060860182611da2565b5060808301516120366080860182611db1565b5060a083015184820360a086015261204e8282611e11565b9150508091505092915050565b60006120678383611fc4565b905092915050565b6000602082019050919050565b600061208782611f98565b6120918185611fa3565b9350836020820285016120a385611fb4565b8060005b858110156120df57848403895281516120c0858261205b565b94506120cb8361206f565b925060208a019950506001810190506120a7565b50829750879550505050505092915050565b6000602082019050818103600083015261210b818461207c565b905092915050565b60006020820190506121286000830184611f28565b92915050565b7f4e487b7100000000000000000000000000000000000000000000000000000000600052602260045260246000fd5b6000600282049050600182168061217557607f821691505b602082108114156121895761218861212e565b5b50919050565b7f4649524944206d75737420616c72656164792065786973742e00000000000000600082015250565b60006121c5601983611baa565b91506121d08261218f565b602082019050919050565b600060208201905081810360008301526121f4816121b8565b9050919050565b7f4e487b7100000000000000000000000000000000000000000000000000000000600052601160045260246000fd5b600061223582611abc565b91507fffffffffffffffffffffffffffffffffffffffffffffffffffffffffffffffff821415612268576122676121fb565b5b600182019050919050565b600061227e82611abc565b915061228983611abc565b92508282101561229c5761229b6121fb565b5b828203905092915050565b7f4d757374206265206120617574686f726973656420706f6c696365206d616e00600082015250565b60006122dd601f83611baa565b91506122e8826122a7565b602082019050919050565b6000602082019050818103600083015261230c816122d0565b9050919050565b7f4e487b7100000000000000000000000000000000000000000000000000000000600052603260045260246000fd5b6000604082019050818103600083015261235c8185611bbb565b905061236b6020830184611f28565b9392505050565b6000602082019050818103600083015261238c8184611bbb565b905092915050565b600060408201905081810360008301526123ae8185611bbb565b90506123bd6020830184611c2b565b939250505056fea26469706673582212208564c3314f4d72159283a4b9cd5d6899bf2447438d9e31dae3ae95f36faebc6d64736f6c634300080b0033",
  "linkReferences": {},
  "deployedLinkReferences": {}
}